{
  "contractName": "Vault",
  "abi": [
    {
      "inputs": [
        {
          "internalType": "address",
          "name": "_token",
          "type": "address"
        }
      ],
      "stateMutability": "nonpayable",
      "type": "constructor"
    },
    {
      "anonymous": false,
      "inputs": [
        {
          "indexed": false,
          "internalType": "uint256",
          "name": "amountDeposited",
          "type": "uint256"
        },
        {
          "indexed": false,
          "internalType": "uint256",
          "name": "amountMinted",
          "type": "uint256"
        }
      ],
      "name": "Deposit",
      "type": "event"
    },
    {
      "anonymous": false,
      "inputs": [
        {
          "indexed": true,
          "internalType": "address",
          "name": "previousOwner",
          "type": "address"
        },
        {
          "indexed": true,
          "internalType": "address",
          "name": "newOwner",
          "type": "address"
        }
      ],
      "name": "OwnershipTransferred",
      "type": "event"
    },
    {
      "anonymous": false,
      "inputs": [
        {
          "indexed": true,
          "internalType": "address",
          "name": "from",
          "type": "address"
        },
        {
          "indexed": true,
          "internalType": "address",
          "name": "to",
          "type": "address"
        },
        {
          "indexed": false,
          "internalType": "uint256",
          "name": "value",
          "type": "uint256"
        }
      ],
      "name": "Transfer",
      "type": "event"
    },
    {
      "inputs": [],
      "name": "owner",
      "outputs": [
        {
          "internalType": "address",
          "name": "",
          "type": "address"
        }
      ],
      "stateMutability": "view",
      "type": "function"
    },
    {
      "inputs": [],
      "name": "renounceOwnership",
      "outputs": [],
      "stateMutability": "nonpayable",
      "type": "function"
    },
    {
      "inputs": [],
      "name": "token",
      "outputs": [
        {
          "internalType": "contract IERC20",
          "name": "",
          "type": "address"
        }
      ],
      "stateMutability": "view",
      "type": "function"
    },
    {
      "inputs": [],
      "name": "totalSupply",
      "outputs": [
        {
          "internalType": "uint256",
          "name": "",
          "type": "uint256"
        }
      ],
      "stateMutability": "view",
      "type": "function"
    },
    {
      "inputs": [
        {
          "internalType": "address",
          "name": "newOwner",
          "type": "address"
        }
      ],
      "name": "transferOwnership",
      "outputs": [],
      "stateMutability": "nonpayable",
      "type": "function"
    },
    {
      "inputs": [
        {
          "internalType": "address",
          "name": "",
          "type": "address"
        }
      ],
      "name": "vaults",
      "outputs": [
        {
          "internalType": "uint256",
          "name": "collateralAmount",
          "type": "uint256"
        },
        {
          "internalType": "uint256",
          "name": "debtAmount",
          "type": "uint256"
        }
      ],
      "stateMutability": "view",
      "type": "function"
    },
    {
      "inputs": [
        {
          "internalType": "uint256",
          "name": "amountToMint",
          "type": "uint256"
        }
      ],
      "name": "mint",
      "outputs": [],
      "stateMutability": "payable",
      "type": "function"
    },
    {
      "inputs": [
        {
          "internalType": "uint256",
          "name": "amountToDeposit",
          "type": "uint256"
        }
      ],
      "name": "deposit",
      "outputs": [],
      "stateMutability": "payable",
      "type": "function"
    },
    {
      "inputs": [
        {
          "internalType": "address",
          "name": "userAddress",
          "type": "address"
        }
      ],
      "name": "getVault",
      "outputs": [
        {
          "components": [
            {
              "internalType": "uint256",
              "name": "collateralAmount",
              "type": "uint256"
            },
            {
              "internalType": "uint256",
              "name": "debtAmount",
              "type": "uint256"
            }
          ],
          "internalType": "struct IVault.Vault",
          "name": "vault",
          "type": "tuple"
        }
      ],
      "stateMutability": "view",
      "type": "function"
    },
    {
      "inputs": [
        {
          "internalType": "uint256",
          "name": "repaymentAmount",
          "type": "uint256"
        }
      ],
      "name": "estimateCollateralAmount",
      "outputs": [
        {
          "internalType": "uint256",
          "name": "collateralAmount",
          "type": "uint256"
        }
      ],
      "stateMutability": "view",
      "type": "function"
    },
    {
      "inputs": [
        {
          "internalType": "uint256",
          "name": "depositAmount",
          "type": "uint256"
        }
      ],
      "name": "estimateTokenAmount",
      "outputs": [
        {
          "internalType": "uint256",
          "name": "tokenAmount",
          "type": "uint256"
        }
      ],
      "stateMutability": "view",
      "type": "function"
    }
  ],
  "bytecode": "0x60a06040523480156200001157600080fd5b506040516200108d3803806200108d8339818101604052810190620000379190620001c8565b620000576200004b6200009260201b60201c565b6200009a60201b60201c565b8073ffffffffffffffffffffffffffffffffffffffff1660808173ffffffffffffffffffffffffffffffffffffffff168152505050620001fa565b600033905090565b60008060009054906101000a900473ffffffffffffffffffffffffffffffffffffffff169050816000806101000a81548173ffffffffffffffffffffffffffffffffffffffff021916908373ffffffffffffffffffffffffffffffffffffffff1602179055508173ffffffffffffffffffffffffffffffffffffffff168173ffffffffffffffffffffffffffffffffffffffff167f8be0079c531659141344cd1fd0a4f28419497f9722a3daafe3b4186f6b6457e060405160405180910390a35050565b600080fd5b600073ffffffffffffffffffffffffffffffffffffffff82169050919050565b6000620001908262000163565b9050919050565b620001a28162000183565b8114620001ae57600080fd5b50565b600081519050620001c28162000197565b92915050565b600060208284031215620001e157620001e06200015e565b5b6000620001f184828501620001b1565b91505092915050565b608051610e69620002246000396000818161046a0152818161054201526107c90152610e696000f3fe60806040526004361061009c5760003560e01c80638da5cb5b116100645780638da5cb5b1461019a578063a0712d68146101c5578063a622ee7c146101e1578063b6b55f251461021f578063f2fde38b1461023b578063fc0c546a146102645761009c565b80630eb9af38146100a157806318160ddd146100de5780631b05ab791461010957806356bfdaf514610146578063715018a614610183575b600080fd5b3480156100ad57600080fd5b506100c860048036038101906100c39190610934565b61028f565b6040516100d591906109a9565b60405180910390f35b3480156100ea57600080fd5b506100f36102fc565b60405161010091906109d3565b60405180910390f35b34801561011557600080fd5b50610130600480360381019061012b9190610a1a565b610302565b60405161013d91906109d3565b60405180910390f35b34801561015257600080fd5b5061016d60048036038101906101689190610a1a565b610309565b60405161017a91906109d3565b60405180910390f35b34801561018f57600080fd5b50610198610310565b005b3480156101a657600080fd5b506101af610398565b6040516101bc9190610a56565b60405180910390f35b6101df60048036038101906101da9190610a1a565b6103c1565b005b3480156101ed57600080fd5b5061020860048036038101906102039190610934565b61050b565b604051610216929190610a71565b60405180910390f35b61023960048036038101906102349190610a1a565b61052f565b005b34801561024757600080fd5b50610262600480360381019061025d9190610934565b6106d0565b005b34801561027057600080fd5b506102796107c7565b6040516102869190610af9565b60405180910390f35b6102976108b7565b600260008373ffffffffffffffffffffffffffffffffffffffff1673ffffffffffffffffffffffffffffffffffffffff168152602001908152602001600020604051806040016040529081600082015481526020016001820154815250509050919050565b60015481565b6000919050565b6000919050565b6103186107eb565b73ffffffffffffffffffffffffffffffffffffffff16610336610398565b73ffffffffffffffffffffffffffffffffffffffff161461038c576040517f08c379a000000000000000000000000000000000000000000000000000000000815260040161038390610b71565b60405180910390fd5b61039660006107f3565b565b60008060009054906101000a900473ffffffffffffffffffffffffffffffffffffffff16905090565b60008111610404576040517f08c379a00000000000000000000000000000000000000000000000000000000081526004016103fb90610bdd565b60405180910390fd5b6000600260003373ffffffffffffffffffffffffffffffffffffffff1673ffffffffffffffffffffffffffffffffffffffff1681526020019081526020016000206000015411156105085780600160008282546104619190610c2c565b925050819055507f000000000000000000000000000000000000000000000000000000000000000073ffffffffffffffffffffffffffffffffffffffff1663a9059cbb33836040518363ffffffff1660e01b81526004016104c3929190610c82565b6020604051808303816000875af11580156104e2573d6000803e3d6000fd5b505050506040513d601f19601f820116820180604052508101906105069190610ce3565b505b50565b60026020528060005260406000206000915090508060000154908060010154905082565b600060028261053e9190610d10565b90507f000000000000000000000000000000000000000000000000000000000000000073ffffffffffffffffffffffffffffffffffffffff166323b872dd3330856040518463ffffffff1660e01b815260040161059d93929190610d6a565b6020604051808303816000875af11580156105bc573d6000803e3d6000fd5b505050506040513d601f19601f820116820180604052508101906105e09190610ce3565b5081600260003373ffffffffffffffffffffffffffffffffffffffff1673ffffffffffffffffffffffffffffffffffffffff16815260200190815260200160002060000160008282546106339190610c2c565b9250508190555080600260003373ffffffffffffffffffffffffffffffffffffffff1673ffffffffffffffffffffffffffffffffffffffff168152602001908152602001600020600101600082825461068c9190610c2c565b925050819055507fa3af609bf46297028ce551832669030f9effef2b02606d02cbbcc40fe6b47c5582826040516106c4929190610a71565b60405180910390a15050565b6106d86107eb565b73ffffffffffffffffffffffffffffffffffffffff166106f6610398565b73ffffffffffffffffffffffffffffffffffffffff161461074c576040517f08c379a000000000000000000000000000000000000000000000000000000000815260040161074390610b71565b60405180910390fd5b600073ffffffffffffffffffffffffffffffffffffffff168173ffffffffffffffffffffffffffffffffffffffff16036107bb576040517f08c379a00000000000000000000000000000000000000000000000000000000081526004016107b290610e13565b60405180910390fd5b6107c4816107f3565b50565b7f000000000000000000000000000000000000000000000000000000000000000081565b600033905090565b60008060009054906101000a900473ffffffffffffffffffffffffffffffffffffffff169050816000806101000a81548173ffffffffffffffffffffffffffffffffffffffff021916908373ffffffffffffffffffffffffffffffffffffffff1602179055508173ffffffffffffffffffffffffffffffffffffffff168173ffffffffffffffffffffffffffffffffffffffff167f8be0079c531659141344cd1fd0a4f28419497f9722a3daafe3b4186f6b6457e060405160405180910390a35050565b604051806040016040528060008152602001600081525090565b600080fd5b600073ffffffffffffffffffffffffffffffffffffffff82169050919050565b6000610901826108d6565b9050919050565b610911816108f6565b811461091c57600080fd5b50565b60008135905061092e81610908565b92915050565b60006020828403121561094a576109496108d1565b5b60006109588482850161091f565b91505092915050565b6000819050919050565b61097481610961565b82525050565b604082016000820151610990600085018261096b565b5060208201516109a3602085018261096b565b50505050565b60006040820190506109be600083018461097a565b92915050565b6109cd81610961565b82525050565b60006020820190506109e860008301846109c4565b92915050565b6109f781610961565b8114610a0257600080fd5b50565b600081359050610a14816109ee565b92915050565b600060208284031215610a3057610a2f6108d1565b5b6000610a3e84828501610a05565b91505092915050565b610a50816108f6565b82525050565b6000602082019050610a6b6000830184610a47565b92915050565b6000604082019050610a8660008301856109c4565b610a9360208301846109c4565b9392505050565b6000819050919050565b6000610abf610aba610ab5846108d6565b610a9a565b6108d6565b9050919050565b6000610ad182610aa4565b9050919050565b6000610ae382610ac6565b9050919050565b610af381610ad8565b82525050565b6000602082019050610b0e6000830184610aea565b92915050565b600082825260208201905092915050565b7f4f776e61626c653a2063616c6c6572206973206e6f7420746865206f776e6572600082015250565b6000610b5b602083610b14565b9150610b6682610b25565b602082019050919050565b60006020820190508181036000830152610b8a81610b4e565b9050919050565b7f43616e2774206d696e742030206f72206c65737320746f6b656e730000000000600082015250565b6000610bc7601b83610b14565b9150610bd282610b91565b602082019050919050565b60006020820190508181036000830152610bf681610bba565b9050919050565b7f4e487b7100000000000000000000000000000000000000000000000000000000600052601160045260246000fd5b6000610c3782610961565b9150610c4283610961565b9250827fffffffffffffffffffffffffffffffffffffffffffffffffffffffffffffffff03821115610c7757610c76610bfd565b5b828201905092915050565b6000604082019050610c976000830185610a47565b610ca460208301846109c4565b9392505050565b60008115159050919050565b610cc081610cab565b8114610ccb57600080fd5b50565b600081519050610cdd81610cb7565b92915050565b600060208284031215610cf957610cf86108d1565b5b6000610d0784828501610cce565b91505092915050565b6000610d1b82610961565b9150610d2683610961565b9250817fffffffffffffffffffffffffffffffffffffffffffffffffffffffffffffffff0483118215151615610d5f57610d5e610bfd565b5b828202905092915050565b6000606082019050610d7f6000830186610a47565b610d8c6020830185610a47565b610d9960408301846109c4565b949350505050565b7f4f776e61626c653a206e6577206f776e657220697320746865207a65726f206160008201527f6464726573730000000000000000000000000000000000000000000000000000602082015250565b6000610dfd602683610b14565b9150610e0882610da1565b604082019050919050565b60006020820190508181036000830152610e2c81610df0565b905091905056fea26469706673582212207f96aa70886dcaa0c2497a131fddcb987a90332dfb67941492f63fccdad094e764736f6c634300080d0033",
  "immutableReferences": {
    "216": [
      {
        "length": 32,
        "start": 1130
      },
      {
        "length": 32,
        "start": 1346
      },
      {
        "length": 32,
        "start": 1993
      }
    ]
  },
  "source": "// SPDX-License-Identifier: MIT\n\npragma solidity ^0.8.13;\n\nimport \"@openzeppelin/contracts/token/ERC20/IERC20.sol\";\nimport \"./interfaces/IVault.sol\";\nimport \"@openzeppelin/contracts/access/Ownable.sol\";\n\ncontract Vault is IVault, Ownable {\n    IERC20 public immutable token;\n    uint256 public totalSupply;\n    mapping(address => Vault) public vaults;\n\n    constructor(address _token) {\n        token = IERC20(_token);\n    }\n\n    /**\n     * Mints stable coin to the vault contract.\n     * @param amountToMint The amount of stable coin to mint.\n     */\n    function mint(uint256 amountToMint) external payable override {\n        require(amountToMint > 0, \"Can't mint 0 or less tokens\");\n        if (vaults[msg.sender].collateralAmount > 0) {\n            totalSupply += amountToMint;\n            token.transfer(msg.sender, amountToMint);\n        }\n    }\n\n    /** \n    @notice Allows a user to deposit cUSD collateral in exchange for some amount of zUSD.\n    @param amountToDeposit  The amount of cUSD the user sent in the transaction\n     */\n    function deposit(uint256 amountToDeposit) external payable override {\n        uint256 amountToMint = amountToDeposit * 2;\n        token.transferFrom(msg.sender, address(this), amountToDeposit);\n        vaults[msg.sender].collateralAmount += amountToDeposit;\n        vaults[msg.sender].debtAmount += amountToMint;\n        emit Deposit(amountToDeposit, amountToMint);\n    }\n\n    function getVault(address userAddress)\n        external\n        view\n        override\n        returns (Vault memory vault)\n    {\n        return vaults[userAddress];\n    }\n\n    function estimateCollateralAmount(uint256 repaymentAmount)\n        external\n        view\n        override\n        returns (uint256 collateralAmount)\n    {}\n\n    function estimateTokenAmount(uint256 depositAmount)\n        external\n        view\n        override\n        returns (uint256 tokenAmount)\n    {}\n}\n",
  "sourcePath": "/Users/apple/workplace/Canza/Baki/baki_contracts/contracts/Vault.sol",
  "compiler": {
    "name": "solc",
    "version": "0.8.13+commit.abaa5c0e.Emscripten.clang"
  },
  "schemaVersion": "3.4.7",
  "updatedAt": "2022-05-26T09:00:27.001Z",
  "devdoc": {
    "kind": "dev",
    "methods": {
      "deposit(uint256)": {
        "params": {
          "amountToDeposit": "The amount of cUSD the user sent in the transaction"
        }
      },
      "mint(uint256)": {
        "params": {
          "amountToMint": "The amount of stable coin to mint."
        }
      },
      "owner()": {
        "details": "Returns the address of the current owner."
      },
      "renounceOwnership()": {
        "details": "Leaves the contract without owner. It will not be possible to call `onlyOwner` functions anymore. Can only be called by the current owner. NOTE: Renouncing ownership will leave the contract without an owner, thereby removing any functionality that is only available to the owner."
      },
      "transferOwnership(address)": {
        "details": "Transfers ownership of the contract to a new account (`newOwner`). Can only be called by the current owner."
      }
    },
    "version": 1
  },
  "userdoc": {
    "kind": "user",
    "methods": {
      "deposit(uint256)": {
        "notice": "Allows a user to deposit cUSD collateral in exchange for some amount of zUSD."
      },
      "mint(uint256)": {
        "notice": "Mints stable coin to the vault contract."
      }
    },
    "version": 1
  }
}