{
  "contractName": "Vault",
  "abi": [
    {
      "inputs": [
        {
          "internalType": "address",
          "name": "_token",
          "type": "address"
        }
      ],
      "stateMutability": "nonpayable",
      "type": "constructor"
    },
    {
      "anonymous": false,
      "inputs": [
        {
          "indexed": true,
          "internalType": "address",
          "name": "from",
          "type": "address"
        },
        {
          "indexed": true,
          "internalType": "address",
          "name": "to",
          "type": "address"
        },
        {
          "indexed": false,
          "internalType": "uint256",
          "name": "value",
          "type": "uint256"
        }
      ],
      "name": "Transfer",
      "type": "event"
    },
    {
      "inputs": [
        {
          "internalType": "address",
          "name": "",
          "type": "address"
        }
      ],
      "name": "balanceOf",
      "outputs": [
        {
          "internalType": "uint256",
          "name": "",
          "type": "uint256"
        }
      ],
      "stateMutability": "view",
      "type": "function"
    },
    {
      "inputs": [],
      "name": "owner",
      "outputs": [
        {
          "internalType": "address",
          "name": "",
          "type": "address"
        }
      ],
      "stateMutability": "view",
      "type": "function"
    },
    {
      "inputs": [],
      "name": "token",
      "outputs": [
        {
          "internalType": "contract IERC20",
          "name": "",
          "type": "address"
        }
      ],
      "stateMutability": "view",
      "type": "function"
    },
    {
      "inputs": [],
      "name": "totalSupply",
      "outputs": [
        {
          "internalType": "uint256",
          "name": "",
          "type": "uint256"
        }
      ],
      "stateMutability": "view",
      "type": "function"
    },
    {
      "inputs": [
        {
          "internalType": "uint256",
          "name": "_amount",
          "type": "uint256"
        }
      ],
      "name": "deposit",
      "outputs": [],
      "stateMutability": "nonpayable",
      "type": "function"
    }
  ],
  "bytecode": "0x60a060405234801561001057600080fd5b5060405161070438038061070483398181016040528101906100329190610110565b33600160006101000a81548173ffffffffffffffffffffffffffffffffffffffff021916908373ffffffffffffffffffffffffffffffffffffffff1602179055508073ffffffffffffffffffffffffffffffffffffffff1660808173ffffffffffffffffffffffffffffffffffffffff16815250505061013d565b600080fd5b600073ffffffffffffffffffffffffffffffffffffffff82169050919050565b60006100dd826100b2565b9050919050565b6100ed816100d2565b81146100f857600080fd5b50565b60008151905061010a816100e4565b92915050565b600060208284031215610126576101256100ad565b5b6000610134848285016100fb565b91505092915050565b6080516105a561015f6000396000818161015401526101f901526105a56000f3fe608060405234801561001057600080fd5b50600436106100575760003560e01c806318160ddd1461005c57806370a082311461007a5780638da5cb5b146100aa578063b6b55f25146100c8578063fc0c546a146100e4575b600080fd5b610064610102565b60405161007191906102a6565b60405180910390f35b610094600480360381019061008f9190610324565b610108565b6040516100a191906102a6565b60405180910390f35b6100b2610120565b6040516100bf9190610360565b60405180910390f35b6100e260048036038101906100dd91906103a7565b610146565b005b6100ec6101f7565b6040516100f99190610433565b60405180910390f35b60005481565b60026020528060005260406000206000915090505481565b600160009054906101000a900473ffffffffffffffffffffffffffffffffffffffff1681565b6000610152338261021b565b7f000000000000000000000000000000000000000000000000000000000000000073ffffffffffffffffffffffffffffffffffffffff166323b872dd3330856040518463ffffffff1660e01b81526004016101af9392919061044e565b6020604051808303816000875af11580156101ce573d6000803e3d6000fd5b505050506040513d601f19601f820116820180604052508101906101f291906104bd565b505050565b7f000000000000000000000000000000000000000000000000000000000000000081565b8060008082825461022c9190610519565b9250508190555080600260008473ffffffffffffffffffffffffffffffffffffffff1673ffffffffffffffffffffffffffffffffffffffff16815260200190815260200160002060008282546102829190610519565b925050819055505050565b6000819050919050565b6102a08161028d565b82525050565b60006020820190506102bb6000830184610297565b92915050565b600080fd5b600073ffffffffffffffffffffffffffffffffffffffff82169050919050565b60006102f1826102c6565b9050919050565b610301816102e6565b811461030c57600080fd5b50565b60008135905061031e816102f8565b92915050565b60006020828403121561033a576103396102c1565b5b60006103488482850161030f565b91505092915050565b61035a816102e6565b82525050565b60006020820190506103756000830184610351565b92915050565b6103848161028d565b811461038f57600080fd5b50565b6000813590506103a18161037b565b92915050565b6000602082840312156103bd576103bc6102c1565b5b60006103cb84828501610392565b91505092915050565b6000819050919050565b60006103f96103f46103ef846102c6565b6103d4565b6102c6565b9050919050565b600061040b826103de565b9050919050565b600061041d82610400565b9050919050565b61042d81610412565b82525050565b60006020820190506104486000830184610424565b92915050565b60006060820190506104636000830186610351565b6104706020830185610351565b61047d6040830184610297565b949350505050565b60008115159050919050565b61049a81610485565b81146104a557600080fd5b50565b6000815190506104b781610491565b92915050565b6000602082840312156104d3576104d26102c1565b5b60006104e1848285016104a8565b91505092915050565b7f4e487b7100000000000000000000000000000000000000000000000000000000600052601160045260246000fd5b60006105248261028d565b915061052f8361028d565b9250827fffffffffffffffffffffffffffffffffffffffffffffffffffffffffffffffff03821115610564576105636104ea565b5b82820190509291505056fea26469706673582212200a21ed435cdd04431e9d76ca8eac419bf05dbc6518ef0762a8135037b558b2cb64736f6c634300080d0033",
  "immutableReferences": {
    "749": [
      {
        "length": 32,
        "start": 340
      },
      {
        "length": 32,
        "start": 505
      }
    ]
  },
  "source": "// The manager access control\r\n// SPDX-License-Identifier: MIT\r\n\r\npragma solidity ^0.8.13;\r\n\r\nimport \"@openzeppelin/contracts/token/ERC20/IERC20.sol\";\r\n\r\n\r\ncontract Vault {\r\n    IERC20 public immutable token;\r\n    uint public totalSupply;\r\n    address public owner;\r\n    mapping(address => uint) public balanceOf;\r\n    event Transfer(address indexed from, address indexed to, uint value);\r\n\r\n   constructor(address _token) {\r\n        owner = msg.sender;\r\n        token = IERC20(_token);\r\n    }\r\n\r\n    function _mint(address _to, uint _value) private {\r\n        totalSupply += _value;\r\n        balanceOf[_to] += _value;\r\n    }\r\n    \r\n    function _burn(address _from, uint _value) private {\r\n        totalSupply -= _value;\r\n        balanceOf[_from] -= _value;\r\n    }\r\n\r\n    function deposit(uint _amount) external {\r\n        uint amountCUSD;\r\n        _mint(msg.sender, amountCUSD);\r\n        token.transferFrom(msg.sender, address(this), _amount);\r\n    }\r\n    \r\n}\r\n\r\n",
  "sourcePath": "C:\\Users\\natot\\OneDrive\\Desktop\\Contracts_Nato\\contracts\\Vault.sol",
  "compiler": {
    "name": "solc",
    "version": "0.8.13+commit.abaa5c0e.Emscripten.clang"
  },
  "schemaVersion": "3.4.7",
  "updatedAt": "2022-05-25T20:02:12.788Z",
  "devdoc": {
    "kind": "dev",
    "methods": {},
    "version": 1
  },
  "userdoc": {
    "kind": "user",
    "methods": {},
    "version": 1
  }
}