{
  "contractName": "Vault",
  "abi": [
    {
      "inputs": [
        {
          "internalType": "address",
          "name": "_token",
          "type": "address"
        }
      ],
      "stateMutability": "nonpayable",
      "type": "constructor"
    },
    {
      "anonymous": false,
      "inputs": [
        {
          "indexed": false,
          "internalType": "uint256",
          "name": "amountDeposited",
          "type": "uint256"
        },
        {
          "indexed": false,
          "internalType": "uint256",
          "name": "amountMinted",
          "type": "uint256"
        }
      ],
      "name": "Deposit",
      "type": "event"
    },
    {
      "anonymous": false,
      "inputs": [
        {
          "indexed": true,
          "internalType": "address",
          "name": "previousOwner",
          "type": "address"
        },
        {
          "indexed": true,
          "internalType": "address",
          "name": "newOwner",
          "type": "address"
        }
      ],
      "name": "OwnershipTransferred",
      "type": "event"
    },
    {
      "anonymous": false,
      "inputs": [
        {
          "indexed": true,
          "internalType": "address",
          "name": "from",
          "type": "address"
        },
        {
          "indexed": true,
          "internalType": "address",
          "name": "to",
          "type": "address"
        },
        {
          "indexed": false,
          "internalType": "uint256",
          "name": "value",
          "type": "uint256"
        }
      ],
      "name": "Transfer",
      "type": "event"
    },
    {
      "inputs": [],
      "name": "owner",
      "outputs": [
        {
          "internalType": "address",
          "name": "",
          "type": "address"
        }
      ],
      "stateMutability": "view",
      "type": "function",
      "constant": true
    },
    {
      "inputs": [],
      "name": "renounceOwnership",
      "outputs": [],
      "stateMutability": "nonpayable",
      "type": "function"
    },
    {
      "inputs": [],
      "name": "token",
      "outputs": [
        {
          "internalType": "contract IERC20",
          "name": "",
          "type": "address"
        }
      ],
      "stateMutability": "view",
      "type": "function",
      "constant": true
    },
    {
      "inputs": [],
      "name": "totalSupply",
      "outputs": [
        {
          "internalType": "uint256",
          "name": "",
          "type": "uint256"
        }
      ],
      "stateMutability": "view",
      "type": "function",
      "constant": true
    },
    {
      "inputs": [
        {
          "internalType": "address",
          "name": "newOwner",
          "type": "address"
        }
      ],
      "name": "transferOwnership",
      "outputs": [],
      "stateMutability": "nonpayable",
      "type": "function"
    },
    {
      "inputs": [
        {
          "internalType": "address",
          "name": "",
          "type": "address"
        }
      ],
      "name": "vaults",
      "outputs": [
        {
          "internalType": "uint256",
          "name": "collateralAmount",
          "type": "uint256"
        },
        {
          "internalType": "uint256",
          "name": "debtAmount",
          "type": "uint256"
        }
      ],
      "stateMutability": "view",
      "type": "function",
      "constant": true
    },
    {
      "inputs": [
        {
          "internalType": "uint256",
          "name": "amountToMint",
          "type": "uint256"
        }
      ],
      "name": "mint",
      "outputs": [],
      "stateMutability": "payable",
      "type": "function",
      "payable": true
    },
    {
      "inputs": [
        {
          "internalType": "uint256",
          "name": "amountToDeposit",
          "type": "uint256"
        }
      ],
      "name": "deposit",
      "outputs": [],
      "stateMutability": "payable",
      "type": "function",
      "payable": true
    },
    {
      "inputs": [
        {
          "internalType": "address",
          "name": "userAddress",
          "type": "address"
        }
      ],
      "name": "getVault",
      "outputs": [
        {
          "components": [
            {
              "internalType": "uint256",
              "name": "collateralAmount",
              "type": "uint256"
            },
            {
              "internalType": "uint256",
              "name": "debtAmount",
              "type": "uint256"
            }
          ],
          "internalType": "struct IVault.Vault",
          "name": "vault",
          "type": "tuple"
        }
      ],
      "stateMutability": "view",
      "type": "function",
      "constant": true
    },
    {
      "inputs": [
        {
          "internalType": "uint256",
          "name": "repaymentAmount",
          "type": "uint256"
        }
      ],
      "name": "estimateCollateralAmount",
      "outputs": [
        {
          "internalType": "uint256",
          "name": "collateralAmount",
          "type": "uint256"
        }
      ],
      "stateMutability": "view",
      "type": "function",
      "constant": true
    }
  ],
  "bytecode": "0x60a06040523480156200001157600080fd5b5060405162001152380380620011528339818101604052810190620000379190620001c8565b620000576200004b6200009260201b60201c565b6200009a60201b60201c565b8073ffffffffffffffffffffffffffffffffffffffff1660808173ffffffffffffffffffffffffffffffffffffffff168152505050620001fa565b600033905090565b60008060009054906101000a900473ffffffffffffffffffffffffffffffffffffffff169050816000806101000a81548173ffffffffffffffffffffffffffffffffffffffff021916908373ffffffffffffffffffffffffffffffffffffffff1602179055508173ffffffffffffffffffffffffffffffffffffffff168173ffffffffffffffffffffffffffffffffffffffff167f8be0079c531659141344cd1fd0a4f28419497f9722a3daafe3b4186f6b6457e060405160405180910390a35050565b600080fd5b600073ffffffffffffffffffffffffffffffffffffffff82169050919050565b6000620001908262000163565b9050919050565b620001a28162000183565b8114620001ae57600080fd5b50565b600081519050620001c28162000197565b92915050565b600060208284031215620001e157620001e06200015e565b5b6000620001f184828501620001b1565b91505092915050565b608051610f2e62000224600039600081816104550152818161056301526107ea0152610f2e6000f3fe6080604052600436106100915760003560e01c8063a0712d6811610059578063a0712d681461017d578063a622ee7c14610199578063b6b55f25146101d7578063f2fde38b146101f3578063fc0c546a1461021c57610091565b80630eb9af381461009657806318160ddd146100d357806356bfdaf5146100fe578063715018a61461013b5780638da5cb5b14610152575b600080fd5b3480156100a257600080fd5b506100bd60048036038101906100b89190610955565b610247565b6040516100ca91906109ca565b60405180910390f35b3480156100df57600080fd5b506100e86102b4565b6040516100f591906109f4565b60405180910390f35b34801561010a57600080fd5b5061012560048036038101906101209190610a3b565b6102ba565b60405161013291906109f4565b60405180910390f35b34801561014757600080fd5b506101506102c1565b005b34801561015e57600080fd5b50610167610349565b6040516101749190610a77565b60405180910390f35b61019760048036038101906101929190610a3b565b610372565b005b3480156101a557600080fd5b506101c060048036038101906101bb9190610955565b6104f5565b6040516101ce929190610a92565b60405180910390f35b6101f160048036038101906101ec9190610a3b565b610519565b005b3480156101ff57600080fd5b5061021a60048036038101906102159190610955565b6106f1565b005b34801561022857600080fd5b506102316107e8565b60405161023e9190610b1a565b60405180910390f35b61024f6108d8565b600260008373ffffffffffffffffffffffffffffffffffffffff1673ffffffffffffffffffffffffffffffffffffffff168152602001908152602001600020604051806040016040529081600082015481526020016001820154815250509050919050565b60015481565b6000919050565b6102c961080c565b73ffffffffffffffffffffffffffffffffffffffff166102e7610349565b73ffffffffffffffffffffffffffffffffffffffff161461033d576040517f08c379a000000000000000000000000000000000000000000000000000000000815260040161033490610b92565b60405180910390fd5b6103476000610814565b565b60008060009054906101000a900473ffffffffffffffffffffffffffffffffffffffff16905090565b600081116103b5576040517f08c379a00000000000000000000000000000000000000000000000000000000081526004016103ac90610bfe565b60405180910390fd5b6000600260003373ffffffffffffffffffffffffffffffffffffffff1673ffffffffffffffffffffffffffffffffffffffff168152602001908152602001600020600001541161043a576040517f08c379a000000000000000000000000000000000000000000000000000000000815260040161043190610c90565b60405180910390fd5b806001600082825461044c9190610cdf565b925050819055507f000000000000000000000000000000000000000000000000000000000000000073ffffffffffffffffffffffffffffffffffffffff1663a9059cbb33836040518363ffffffff1660e01b81526004016104ae929190610d35565b6020604051808303816000875af11580156104cd573d6000803e3d6000fd5b505050506040513d601f19601f820116820180604052508101906104f19190610d96565b5050565b60026020528060005260406000206000915090508060000154908060010154905082565b6000811161055c576040517f08c379a000000000000000000000000000000000000000000000000000000000815260040161055390610e0f565b60405180910390fd5b60008190507f000000000000000000000000000000000000000000000000000000000000000073ffffffffffffffffffffffffffffffffffffffff166323b872dd3330856040518463ffffffff1660e01b81526004016105be93929190610e2f565b6020604051808303816000875af11580156105dd573d6000803e3d6000fd5b505050506040513d601f19601f820116820180604052508101906106019190610d96565b5081600260003373ffffffffffffffffffffffffffffffffffffffff1673ffffffffffffffffffffffffffffffffffffffff16815260200190815260200160002060000160008282546106549190610cdf565b9250508190555080600260003373ffffffffffffffffffffffffffffffffffffffff1673ffffffffffffffffffffffffffffffffffffffff16815260200190815260200160002060010160008282546106ad9190610cdf565b925050819055507fa3af609bf46297028ce551832669030f9effef2b02606d02cbbcc40fe6b47c5582826040516106e5929190610a92565b60405180910390a15050565b6106f961080c565b73ffffffffffffffffffffffffffffffffffffffff16610717610349565b73ffffffffffffffffffffffffffffffffffffffff161461076d576040517f08c379a000000000000000000000000000000000000000000000000000000000815260040161076490610b92565b60405180910390fd5b600073ffffffffffffffffffffffffffffffffffffffff168173ffffffffffffffffffffffffffffffffffffffff16036107dc576040517f08c379a00000000000000000000000000000000000000000000000000000000081526004016107d390610ed8565b60405180910390fd5b6107e581610814565b50565b7f000000000000000000000000000000000000000000000000000000000000000081565b600033905090565b60008060009054906101000a900473ffffffffffffffffffffffffffffffffffffffff169050816000806101000a81548173ffffffffffffffffffffffffffffffffffffffff021916908373ffffffffffffffffffffffffffffffffffffffff1602179055508173ffffffffffffffffffffffffffffffffffffffff168173ffffffffffffffffffffffffffffffffffffffff167f8be0079c531659141344cd1fd0a4f28419497f9722a3daafe3b4186f6b6457e060405160405180910390a35050565b604051806040016040528060008152602001600081525090565b600080fd5b600073ffffffffffffffffffffffffffffffffffffffff82169050919050565b6000610922826108f7565b9050919050565b61093281610917565b811461093d57600080fd5b50565b60008135905061094f81610929565b92915050565b60006020828403121561096b5761096a6108f2565b5b600061097984828501610940565b91505092915050565b6000819050919050565b61099581610982565b82525050565b6040820160008201516109b1600085018261098c565b5060208201516109c4602085018261098c565b50505050565b60006040820190506109df600083018461099b565b92915050565b6109ee81610982565b82525050565b6000602082019050610a0960008301846109e5565b92915050565b610a1881610982565b8114610a2357600080fd5b50565b600081359050610a3581610a0f565b92915050565b600060208284031215610a5157610a506108f2565b5b6000610a5f84828501610a26565b91505092915050565b610a7181610917565b82525050565b6000602082019050610a8c6000830184610a68565b92915050565b6000604082019050610aa760008301856109e5565b610ab460208301846109e5565b9392505050565b6000819050919050565b6000610ae0610adb610ad6846108f7565b610abb565b6108f7565b9050919050565b6000610af282610ac5565b9050919050565b6000610b0482610ae7565b9050919050565b610b1481610af9565b82525050565b6000602082019050610b2f6000830184610b0b565b92915050565b600082825260208201905092915050565b7f4f776e61626c653a2063616c6c6572206973206e6f7420746865206f776e6572600082015250565b6000610b7c602083610b35565b9150610b8782610b46565b602082019050919050565b60006020820190508181036000830152610bab81610b6f565b9050919050565b7f43616e2774206d696e742030206f72206c65737320746f6b656e730000000000600082015250565b6000610be8601b83610b35565b9150610bf382610bb2565b602082019050919050565b60006020820190508181036000830152610c1781610bdb565b9050919050565b7f596f7520646f206e6f74206861766520616e7920636f6c61746572616c2c206460008201527f65706f73697420746f20206d696e740000000000000000000000000000000000602082015250565b6000610c7a602f83610b35565b9150610c8582610c1e565b604082019050919050565b60006020820190508181036000830152610ca981610c6d565b9050919050565b7f4e487b7100000000000000000000000000000000000000000000000000000000600052601160045260246000fd5b6000610cea82610982565b9150610cf583610982565b9250827fffffffffffffffffffffffffffffffffffffffffffffffffffffffffffffffff03821115610d2a57610d29610cb0565b5b828201905092915050565b6000604082019050610d4a6000830185610a68565b610d5760208301846109e5565b9392505050565b60008115159050919050565b610d7381610d5e565b8114610d7e57600080fd5b50565b600081519050610d9081610d6a565b92915050565b600060208284031215610dac57610dab6108f2565b5b6000610dba84828501610d81565b91505092915050565b7f43616e2774206465706f7369742030206f72206c65737320746f6b656e730000600082015250565b6000610df9601e83610b35565b9150610e0482610dc3565b602082019050919050565b60006020820190508181036000830152610e2881610dec565b9050919050565b6000606082019050610e446000830186610a68565b610e516020830185610a68565b610e5e60408301846109e5565b949350505050565b7f4f776e61626c653a206e6577206f776e657220697320746865207a65726f206160008201527f6464726573730000000000000000000000000000000000000000000000000000602082015250565b6000610ec2602683610b35565b9150610ecd82610e66565b604082019050919050565b60006020820190508181036000830152610ef181610eb5565b905091905056fea2646970667358221220e0bb7dbd8f564180e12a7e6d1799f4d71db37f5e2aeeee3274d68e962afbbe7c64736f6c634300080d0033",
  "immutableReferences": {
    "860": [
      {
        "length": 32,
        "start": 1109
      },
      {
        "length": 32,
        "start": 1379
      },
      {
        "length": 32,
        "start": 2026
      }
    ]
  },
  "source": "// SPDX-License-Identifier: MIT\r\n\r\npragma solidity ^0.8.13;\r\n\r\nimport \"@openzeppelin/contracts/token/ERC20/IERC20.sol\";\r\nimport \"./interfaces/IVault.sol\";\r\nimport \"@openzeppelin/contracts/access/Ownable.sol\";\r\n\r\ncontract Vault is IVault, Ownable {\r\n    IERC20 public immutable token;\r\n    uint256 public totalSupply;\r\n    mapping(address => Vault) public vaults;\r\n\r\n    constructor(address _token) {\r\n        token = IERC20(_token);\r\n    }\r\n\r\n    /**\r\n     * Mints stable coin to the vault contract.\r\n     * @param amountToMint The amount of stable coin to mint.\r\n     */\r\n    function mint(uint256 amountToMint) external payable override {\r\n        require(amountToMint > 0, \"Can't mint 0 or less tokens\");\r\n        require(\r\n            vaults[msg.sender].collateralAmount > 0,\r\n            \"You do not have any colateral, deposit to  mint\"\r\n        );\r\n        totalSupply += amountToMint;\r\n        token.transfer(msg.sender, amountToMint);\r\n    }\r\n\r\n    /** \r\n    @notice Allows a user to deposit cUSD collateral in exchange for some amount of zUSD.\r\n    @param amountToDeposit  The amount of cUSD the user sent in the transaction\r\n     */\r\n    function deposit(uint256 amountToDeposit) external payable override {\r\n        require(amountToDeposit > 0, \"Can't deposit 0 or less tokens\");\r\n        uint256 amountToMint = amountToDeposit; // => for now\r\n        token.transferFrom(msg.sender, address(this), amountToDeposit);\r\n        vaults[msg.sender].collateralAmount += amountToDeposit;\r\n        vaults[msg.sender].debtAmount += amountToMint;\r\n        emit Deposit(amountToDeposit, amountToMint);\r\n    }\r\n\r\n    function getVault(address userAddress)\r\n        external\r\n        view\r\n        override\r\n        returns (Vault memory vault)\r\n    {\r\n        return vaults[userAddress];\r\n    }\r\n\r\n    function estimateCollateralAmount(uint256 repaymentAmount)\r\n        external\r\n        view\r\n        override\r\n        returns (uint256 collateralAmount)\r\n    {\r\n        // this will get the rate from the oracle and estimate the collateralAmount\r\n    }\r\n}\r\n",
  "sourcePath": "C:\\Users\\natot\\OneDrive\\Desktop\\Baki-contracts\\contracts\\Vault.sol",
  "compiler": {
    "name": "solc",
    "version": "0.8.13+commit.abaa5c0e.Emscripten.clang"
  },
  "schemaVersion": "3.4.7",
  "updatedAt": "2022-05-27T04:49:55.528Z",
  "networkType": "ethereum",
  "devdoc": {
    "kind": "dev",
    "methods": {
      "deposit(uint256)": {
        "params": {
          "amountToDeposit": "The amount of cUSD the user sent in the transaction"
        }
      },
      "mint(uint256)": {
        "params": {
          "amountToMint": "The amount of stable coin to mint."
        }
      },
      "owner()": {
        "details": "Returns the address of the current owner."
      },
      "renounceOwnership()": {
        "details": "Leaves the contract without owner. It will not be possible to call `onlyOwner` functions anymore. Can only be called by the current owner. NOTE: Renouncing ownership will leave the contract without an owner, thereby removing any functionality that is only available to the owner."
      },
      "transferOwnership(address)": {
        "details": "Transfers ownership of the contract to a new account (`newOwner`). Can only be called by the current owner."
      }
    },
    "version": 1
  },
  "userdoc": {
    "kind": "user",
    "methods": {
      "deposit(uint256)": {
        "notice": "Allows a user to deposit cUSD collateral in exchange for some amount of zUSD."
      },
      "mint(uint256)": {
        "notice": "Mints stable coin to the vault contract."
      }
    },
    "version": 1
  }
}